:020000040800F2
:10000000500A002029020008C7240008D120000857
:10001000C52400083F060008E92E00080000000083
:10002000000000000000000000000000D9270008C8
:10003000FD060008000000009D2500083928000882
:10004000430200084302000843020008430200087C
:10005000430200084302000843020008430200086C
:10006000430200084302000843020008430200085C
:10007000430200084302000843020008430200084C
:10008000430200084302000843020008430200083C
:10009000430200084302000843020008430200082C
:1000A000430200084302000843020008430200081C
:1000B000430200084302000843020008430200080C
:1000C00043020008430200084302000843020008FC
:1000D00043020008DD2E0008430200084302000826
:1000E00043020008430200084302000843020008DC
:1000F00043020008430200084302000843020008CC
:1001000043020008430200084302000843020008BB
:100110004302000843020008E128000843020008E7
:100120004302000843020008410600084302000899
:10013000430200084302000843020008430200088B
:10014000430200084302000843020008430200087B
:1001500043020008430200084D060008430200085D
:10016000430200084302000843020008430200085B
:100170004302000843020008430200080000000098
:10018000430200084302000800F002F800F03CF8C7
:100190000AA090E8000C82448344AAF10107DA45E2
:1001A00001D100F031F8AFF2090EBAE80F0013F0F8
:1001B000010F18BFFB1A43F001031847CC2D0000B4
:1001C000EC2D0000103A24BF78C878C1FAD8520745
:1001D00024BF30C830C144BF04680C6070470000C1
:1001E0000023002400250026103A28BF78C1FBD840
:1001F000520728BF30C148BF0B6070471FB502F0DF
:10020000ADFE1FBD10B510BD00F0CFF81146FFF7D1
:10021000F5FF02F07BFE00F0EDF803B4FFF7F2FF0C
:1002200003BC00F0F5F80000094880470948004782
:10023000FEE7FEE7FEE7FEE7FEE7FEE7FEE7FEE796
:10024000FEE7FEE704480549054A064B70470000F3
:10025000D12800088901000850040020500A00201D
:10026000500600205006002053EA020C00F069807E
:100270002DE9F04B4FF00006002B1FBFB3FA83F5BA
:1002800003FA05F424FA05F65E4012BF1643B2FAEB
:1002900082F502FA05F4C5F120051EBF22FA05FC1D
:1002A00044EA0C04203556EA044C4FEA144418BFC3
:1002B000641C4FF000084FF00009904271EB030CF2
:1002C00039D3002919BFB1FA81F701FA07F6B0FA5C
:1002D00080F700FA07F6C7F120071EBF20FA07FCD7
:1002E00046EA0C062037B6FBF4FCA7EB0507103FE7
:1002F00007F01F0BCBF120060CFA0BFB2CFA06F6CD
:1003000044BFB3460026202FA4BF5E464FF0000B2B
:100310005BEA060C08BF4FF0010B19EB0B09ABFBB6
:10032000027C48EB0608C01B06FB02CC0BFB03CC8F
:1003300071EB0C01C1E70B46024641464846BDE859
:10034000F08B13B54FF000004FF00001AFF30080C9
:10035000BDE81C4070474FF0000200B513469446BC
:100360009646203922BFA0E80C50A0E80C50B1F10D
:100370002001BFF4F7AF090728BFA0E80C5048BF21
:100380000CC05DF804EB890028BF40F8042B08BFBF
:10039000704748BF20F8022B11F0804F18BF00F8BB
:1003A000012B7047704770477047754600F02CF876
:1003B000AE4605006946534620F00700854618B052
:1003C00020B5FFF73FFFBDE820404FF000064FF09B
:1003D00000074FF000084FF0000B21F00701AC467A
:1003E000ACE8C009ACE8C009ACE8C009ACE8C00999
:1003F0008D46704710B50446AFF300802046BDE837
:100400001040FFF70ABF000000487047EC030020CF
:1004100001491820ABBEFEE726000200704700002D
:1004200007499FED081A51F8200000EE100AB8EEB7
:10043000C00AC0EE010A9FED040A20EE800A704750
:10044000CC0300200000A544DB0FC940024901EBAA
:10045000800090ED000A7047DC03002070B53C215D
:10046000174801F0CFF93C21164801F0CBF93C21A7
:10047000154801F0C7F93C21144801F0C3F91048B0
:100480000021006841620F48006841620E48006820
:1004900041620E48006841620E4A0D4C9FED0E0A03
:1004A000084602F1100300BF24F8101042F8201093
:1004B00003EB8005401C85ED000A0428F4DB70BDC9
:1004C0001C00002064000020AC000020F40000208C
:1004D00004000020CC0300200000000070B51E4C7A
:1004E00000211C4BDFED1D1A9FED1D1ADFED1D0ACB
:1004F000084604F1100530B1012806D0022825D0A5
:10050000032806D124E0184900E018490968496A1F
:1005100009B233F8102023F810108A1A12B200EE34
:10052000102A54F82060B8EEC02A164444F820601F
:1005300005EB800282EE210A401C042820EE010A0D
:1005400080EE202A82ED002AD5DB70BD0849DDE768
:100550000849DBE704000020CC0300200000A5448C
:10056000DB0FC9400AD7A33C1C0000206400002018
:10057000AC000020F400002010B50021094801F073
:10058000E1FA0421074801F0DDFA0821054801F0ED
:10059000D9FA0C21034801F0D5FABDE8104000F06B
:1005A0003BB800008401002070B50C460546B1F54B
:1005B000E15F02DB41F61F4406E014F5E15F01DC78
:1005C000134C05E0002C02DD4FF0010109E006DAD2
:1005D000C4F1000004B24FF0FF31284601E04FF0B3
:1005E000000102F0FBF80B4945B1012D09D0022DA5
:1005F0000AD0032D01D10868046470BD0868446303
:1006000070BD0868846370BD0868C46370BD000075
:10061000E1E3FFFF8401002010B500210846FFF749
:10062000C3FF00210120FFF7BFFF00210220FFF7D9
:10063000BBFF0021BDE810400320FFF7B5BFFEE778
:10064000014800F0B9B8000014020020014800F091
:10065000B3B800007402002001681823CAB2103A2F
:10066000B2FBF3F2054B6FF30901032A9B5CC365F0
:1006700000D9091D8165084670470000662F0008F3
:1006800010B5014600208B698A6A4FF0C07453B1DF
:10069000B3F5005F15D072B1012A0CD0022A0AD03E
:1006A000032A09D104E01AB1012A06D0022A03D193
:1006B000C96AC90100D5012010BDC96AA142FAD09A
:1006C00010BD002AF7D0012AF2D0022AF3D0032A63
:1006D000F3D010BD30B50468256825F48025256069
:1006E000046863608368402B036803D099600068E6
:1006F000C26030BD9A600068C16030BD704772B69C
:10070000FEE72DE9F0410446876D00F0C5FA064684
:1007100094F835000025022806D08020606584F812
:1007200034500120BDE8F0812068016821F01601F5
:1007300001602068416921F080014161206C08B9A5
:10074000A06C20B12068016821F0080101602068D8
:10075000016821F0010101600CE000F09DFA801BAE
:10076000052807D920206065032084F8350084F827
:100770003450D7E720680068C007EED194F85C10C9
:100780003F208840B860012084F8350084F8345058
:100790000020C7E790F83510022903D08021416579
:1007A00001207047052180F835100068016821F0AC
:1007B00001010160002070472DE9F84304464FF025
:1007C0000009CDF8009063484FF41651A56D0068FC
:1007D000B0FBF1F72E6894F85C10082000FA01F1E4
:1007E00031420FD021680A6852070BD50A6822F0FF
:1007F00004020A6094F85C108840A860606D40F0C4
:100800000100606594F85C104FF0010808FA01F0EF
:10081000304208D021684969090604D5A860606D96
:1008200040F00200606594F85C100420884030427B
:1008300008D021680968890704D5A860606D40F078
:100840000400606594F85C1010208840304218D095
:1008500021680968090714D5A86020680168490360
:1008600004D50068000308D5A16C07E00168C9053C
:1008700003D4016821F008010160216C09B1204610
:10088000884794F85C1020208840304231D021689D
:100890000968C9062DD5A86094F835000528206898
:1008A000016806D0490347D5006800031DD4616C78
:1008B0001CE021F0160101602068416921F08001EF
:1008C0004161206C08B9A06C20B12068016821F05A
:1008D0000801016094F85C103F208840A86084F80B
:1008E000358084F83490216D1FE0E16B09B120461A
:1008F0008847606D00282BD0606DC00714D005209C
:1009000084F835002068016821F001010160009839
:10091000401C0090B84203D820680068C007F6D198
:1009200084F8358084F83490E16C002910D001B04F
:100930002046BDE8F04308470168C905D5D40168E1
:1009400021F01001016084F8358084F83490CCE700
:10095000BDE8F883180000202DE9F041044600F0BE
:100960009BF906465CB1022084F83500002584F826
:1009700034502068016821F0010101600DE0012080
:10098000BDE8F08100F088F9801B052805D92020FA
:100990006065032084F83500F2E720680068C0072E
:1009A000F0D12268116820480140D4E901031843BE
:1009B000D4E903363343184363691843A3691843E2
:1009C000E3691843236A18430843616A042903D181
:1009D000D4E90B1319430843106020684069666A24
:1009E00020F0070130460E43012704280CD1A06AED
:1009F0000643E06A40B12046FFF742FE20B14020A6
:100A0000606584F83570BAE7206846612046FFF7D4
:100A100023FE94F85C203F2191408160656584F855
:100A200035700020ACE700003F8010F02DE9F04168
:100A30000446866D90F83400002501280DD0012071
:100A400084F8340094F835700020012F07D084F822
:100A5000340002252846BDE8F0810220FBE702278A
:100A600084F8357060652046FFF734FE94F85C101A
:100A70003F208840B0602068016841F016010160A5
:100A8000206C20B12068016841F0080101602068F5
:100A9000016841F001010160DCE700002DE9F84F39
:100AA000DFF8BCA10022012503264FF00F090AF14F
:100AB000040BAAF1040E00BF0B6805FA02F42340F0
:100AC000A34270D10F7907F00307012F01D0022F45
:100AD00016D187684FEA420806FA08FC27EA0C0795
:100AE000D1F80CC00CFA08FC4CEA070CC0F808C09E
:100AF0004768A7430C79C4F3001494403C43446016
:100B00000C79E443A4070AD0C4684FEA420C06FA01
:100B10000CF7BC438F6807FA0CF72743C7600C79C2
:100B200004F00304022C12D1D40800EB840CDCF88E
:100B300020405707FF0E09FA07F824EA0804D1F805
:100B4000108008FA07F848EA0408CCF82080046806
:100B50004FEA420C06FA0CF7BC430F7907F0030783
:100B600007FA0CF7274307604C6814F4403F70D035
:100B70003C4C276847F480472760246822F003072D
:100B800004F480440094384C07EB040CDCF808486B
:100B900097074FEA177809FA08F7BC43334FB84272
:100BA00002D1002724E054E0314FB84201D101279F
:100BB0001EE0304FB84201D1022719E02E4FB84253
:100BC00001D1032714E02D4FB84201D104270FE0D3
:100BD0002B4FB84201D105270AE02A4FB84201D174
:100BE000062705E0284FB84201D1072700E0082773
:100BF00007FA08F72743CCF80878DAF80040574698
:100C0000D1F804C09C435FEACC2C00D51C433C6067
:100C1000DBF800405F46D1F804C09C435FEA8C2CAF
:100C200000D51C433C60DEF800407746D1F804C094
:100C30009C435FEA8C3C00D51C433C60084F083F56
:100C40003C68D1F804C09C435FEACC3C00D51C430F
:100C50003C60521C102AFFF42FAFBDE8F88F000053
:100C6000083C01404438024000300140000002408E
:100C70000004024000080240000C02400010024044
:100C80000014024000180240001C02400AB18161B9
:100C900070470904FBE700000148806870470000C6
:100CA0000C0000200248816802781144816070477E
:100CB0000C0000200B4810B5016841F40071016080
:100CC000016841F480610160016841F48071016054
:100CD000032000F06FF80F2000F006F800F024F871
:100CE000002010BD003C024070B50D4D04464FF48D
:100CF0007A712878B1FBF0F00A490968B1FBF0F08D
:100D000000F00AFB48B9102C07D200222146501EE1
:100D100000F030F800206C6070BD012070BD000054
:100D20000C000020180000200A4808B5016841F4B2
:100D300080410160006800F4804000900548001F79
:100D4000016841F080510160006800F0805000901F
:100D500008BD000044380240002809DB00F01F02F3
:100D6000012191404009800000F1E020C0F800110D
:100D700070470000F0B40E4B1B680C46C3F302230F
:100D8000C3F10705042D00D90425191D072901D237
:100D9000002300E0DB1E012606FA05F1491E214072
:100DA00099409E40761E16403143F0BC02F09DB83B
:100DB0000CED00E0064900F0070208684FF6FF035B
:100DC000184040EA0220034A1043086070470000C0
:100DD0000CED00E00000FA052DE9F0470E46050095
:100DE00065D0DFF81481D8F80000F7B200F00700F2
:100DF000B04207D288F80070D8F8000000F0070071
:100E0000B04254D128683D4C810712D5400703D524
:100E1000206840F4E05020602878000703D520685F
:100E200040F4604020602068A96820F0F00008438A
:100E300020602878C0072DD030496868083901281B
:100E400012D0022813D0032811D00968890700297D
:100E50002DDA216821F0030101432160FFF71CFF17
:100E6000814641F2883A0EE009688903EFE7096894
:100E70008901ECE7FFF710FFA0EB0901514502D90A
:100E80000320BDE8F0872068696800F00C00B0EB33
:100E9000810FEFD1D8F80010404601F00701B142B0
:100EA00007D90770006800F00700B04201D00120A8
:100EB000E7E72878400705D52068E96820F4E05086
:100EC000084320602878000706D52068296920F4A7
:100ED000604040EAC100206000F038F82168084A0C
:100EE000C1F30311515CC840064908600648006818
:100EF000FFF7FAFE0020C4E7003C02400838024039
:100F00006E2F00081800002010000020044805493A
:100F100000680968044AC1F38221515CC8407047E7
:100F200018000020083802407E2F000804480549B8
:100F300000680968044AC1F34231515CC8407047F7
:100F400018000020083802407E2F0008154810B510
:100F5000006810F00C02144813D04110042A0FD07E
:100F6000082A0ED10F4C241F2268236802F03F028A
:100F70005B0207D52068C0F38810A0FB010106E0E2
:100F8000084610BD2168C1F38811A1FB00010023B0
:100F9000FFF76AF92168C1F30141491C4900B0FB20
:100FA000F1F010BD083802400024F4002DE9F84F9C
:100FB00004006ED02078DFF84C93C007A9F1040537
:100FC0004AD009F104000168C1F38101012908D068
:100FD0000068C0F3810002280AD1D9F8000040025D
:100FE00006D52868800337D560680028E1D033E053
:100FF0006068B0F5803F10D0B0F5A02F286810D001
:1010000020F480302860286820F480202860606800
:10101000A8B1FFF741FE06460DE0286840F4803095
:10102000F4E740F480202860F7E700BFFFF734FEC4
:10103000801B642873D828688003F7D50CE0FFF77D
:101040002BFE064605E000BFFFF726FE801B642846
:10105000F0D828688003F7D42078DFF8AC828007C6
:101060004FF0000A3ED5A748001D016811F00C0F93
:1010700008D00068C0F3810002280BD1D9F8000025
:10108000400207D42868800716D5E068012800D1FF
:1010900012E033E1E068B8B10120C8F80000FFF7C2
:1010A000FBFD064605E000BFFFF7F6FD801B0228AA
:1010B000C0D828688007F7D52868216920F0F80093
:1010C00040EAC10028600DE0C8F800A0FFF7E4FD89
:1010D000064604E0FFF7E0FD801B02281FD82868C1
:1010E0008007F7D42078000722D5864F87486169AA
:1010F000703771B101210160FFF7CEFD064604E0B3
:10110000FFF7CAFD801B022809D838688007F7D589
:101110000EE0C0F800A0FFF7BFFD064605E082E044
:10112000FFF7BAFD801B02287DD838688007F7D406
:101130002078400768D5DFF8CCB100270BF13C0BD5
:10114000DBF80000C0000BD4DBF8001041F0805148
:10115000CBF80010DBF80000012700F08050009071
:101160006B4E3068C00510D4306840F48070306039
:10117000FFF792FD009005E0FFF78EFD0099401A01
:10118000022850D83068C005F6D55E4EA0686C368F
:1011900001280FD00528306810D020F00100306001
:1011A000306820F004003060A068B8B1FFF774FD2B
:1011B00000900FE0306840F00100F4E740F00400D8
:1011C0003060F7E7FFF768FD0099411A41F2883077
:1011D000814266D830688007F4D50EE0FFF75CFDE9
:1011E000009007E0FFF758FD0099411A41F288305E
:1011F000814256D830688007F4D42FB1DBF8001054
:1012000021F08051CBF80010A069C8B33D49091DF9
:101210000968C1F3810102294AD00228504607D04B
:10122000C8F8600000E03CE0FFF736FD04463BE014
:101230004746C8F86000FFF72FFD064605E000BFEF
:10124000FFF72AFD801B02282BD828688001F7D4DD
:10125000D4E907010843A16A2E4A490802EB01417B
:10126000626A41EA8211084394F82C1040EA016155
:10127000C9F8001001203866FFF70EFD044606E0AD
:101280003EE000BFFFF708FD001B022809D82868D0
:101290008001F7D534E000BFFFF7FEFC001B0228F9
:1012A00002D90320BDE8F88F28688001F4D427E034
:1012B0000128F7D0D9F80000E26900F480019142DA
:1012C0001CD1226A00F03F01914217D147F6C0714C
:1012D000626A0140B1EB821F10D1A26A4FF0FF3366
:1012E00000F4403103EB5202B1EB024F06D194F807
:1012F0002C1000F07060B0EB016F01D00120D1E73D
:101300000020CFE70438024000004742800E4742E9
:10131000007000400000FFFF10B5401EB0F1807F5C
:1013200001D3012010BD4FF0E02460610F21601750
:1013300001F0DBFD0020A06107202061002010BD2E
:101340007047704710B590F83C20012A22D0012246
:1013500080F83C20CA688C6822F4407222434C68B2
:1013600022F4806222430C6822F4006222430C695A
:1013700022F4805222434C6922F400522243C9696C
:10138000002322F480420A4301684A6480F83C301A
:10139000002010BD022010BD70B590F83C20012A3D
:1013A00032D0012480F83C40022280F83D200368BE
:1013B0005A689D6822F070060A6832435A60134BDF
:1013C00002689A4214D0B2F1804F11D0104B9A4269
:1013D0000ED0104B9A420BD00F4B9A4208D00F4BB5
:1013E0009A4205D00E4B9A4202D00E4B9A4204D13B
:1013F000496825F080031943916080F83D40002141
:1014000080F83C10084670BD022070BD000001400D
:101410000004004000080040000C004000040140AF
:10142000004001400018004010B5040003D094F8BB
:101430003D0010B107E0012010BD002084F83C0001
:10144000204600F01FF8022084F83D00211D20688E
:1014500001F04CFA012084F8460084F83E0084F83C
:101460003F0084F8400084F8410084F8420084F88A
:10147000430084F8440084F8450084F83D000020CF
:1014800010BD000008B500681149884212D111480A
:10149000016841F0100101600068002200F01000B6
:1014A000009001213620FFF765FCBDE8084036209A
:1014B000FFF752BC0849884209D10648001D01685F
:1014C00041F002010160006800F00200009008BDD8
:1014D00000100040403802400004014090F83D10E8
:1014E000012901D001207047022180F83D100168D8
:1014F000CA6842F00102CA6000681149884214D0EB
:10150000B0F1804F11D00F4988420ED00E49884269
:101510000BD00E49884208D00D49884205D00D49AC
:10152000884202D00C49884204D1816801F0070149
:10153000062903D0016841F00101016000207047D5
:10154000000001400004004000080040000C004082
:1015500000040140004001400018004070B50446FE
:1015600090F83C000025012817D0012684F83C6043
:10157000022084F83D002068826822F0770222F47D
:101580007F4282600868502838D00DDC20284FD078
:1015900005DC90B3102811D14AE0022070BD30283C
:1015A00046D040280AD13BE060282FD070280DD0CB
:1015B000B0F5805F03D0B0F5005F12D0012584F84C
:1015C0003D60002084F83C00284670BDCB68D1E91E
:1015D0000121206801F0FFF92068816841F077015E
:1015E00009E0CB68D1E90121206801F0F4F9206815
:1015F000816841F480418160E1E719E0CA68496887
:10160000206801F0BDFA5021206806E0CA684968E8
:10161000206801F0C6FA6021206801F0E6F9CEE703
:10162000CA684968206801F0ABFA40212068F4E7F5
:10163000226801461046F0E72DE9F0410D4604000E
:1016400003D094F83D0018B108E00120BDE8F08116
:10165000002084F83C00204600F040F8022084F886
:101660003D002068816844F2070291438160211D9A
:10167000206801F03BF9226890689169166A2B682E
:10168000AF69034340F20330814341EA0721A86870
:10169000EF6908434FF6FC418843E96840EA0720B8
:1016A000014328692F6A000140EA0730084369684E
:1016B0006D6926F0AA0646EA05152943936022685B
:1016C000906154F8460B0162012004F81F09E0758F
:1016D0002076E0762077A0750020B7E7F0B587B0D8
:1016E000044614216846FEF736FE3F49236800256C
:1016F0003D4A1039022401263C48B3F1804F14D0F2
:101700003B4FBB423CD1136843F0020313601268A5
:1017100002F0020205920A6842F001020A600968BA
:1017200001F001010591C02158E0136843F0010365
:101730001360126802F0010205920A6842F0010289
:101740000A600A6802F0010205920A6842F0020289
:101750000A60096801F00201059120218DE852001C
:10176000CDE903566946FFF799F908208DE8510045
:10177000CDE9035669461F48FFF790F907B0F0BD61
:101780001D4FBB4216D1106840F004001060106875
:1017900000F004000590086840F008000860086840
:1017A000694600F0080005904FF440508DE8510064
:1017B000124816E0124FBB42E0D1136843F0080311
:1017C0001360126802F0080205920A6842F00102F2
:1017D0000A60096801F00101059103218DE85200BA
:1017E0006946CDE90354C7E7403802400000024093
:1017F000000400400004024000080040000C0240C9
:10180000000C004070B590F83E60044690F83F50E0
:1018100090F8423090F84320022021B104290ED0E4
:10182000012E1BD114E0012E18D1012B16D184F802
:101830003E0084F8420001220021206820E0012DB2
:101840000CD1012A0AD184F83F0084F8430014E047
:10185000012D03D1012B01D1012A01D0012070BD3E
:1018600084F83E0084F83F0084F8420084F8430086
:1018700001220021206801F0A1F801220421206842
:1018800001F09CF82068016841F00101016000202E
:1018900070BD70472DE9F04104460068C6680569CF
:1018A0004FF00007A90713D5B10711D5F91E016143
:1018B00001202077206880698007204602D0FFF74A
:1018C000E8FF04E000F0A8F8204600F03AF9277796
:1018D000680716D5700714D521686FF004000861F9
:1018E000022020772068806910F4407F204602D0D3
:1018F000FFF7CFFF04E000F08FF8204600F021F959
:101900002777280715D5300713D521686FF0080011
:101910000861042020772068C0698007204602D033
:10192000FFF7B7FF04E000F077F8204600F009F970
:101930002777E80616D5F00614D521686FF0100059
:101940000861082020772068C06910F4407F204695
:1019500002D0FFF79EFF04E000F05EF8204600F0A2
:10196000F0F82777E80708D0F00706D021686FF075
:1019700001000861204600F049F9280608D5300624
:1019800006D521686FF0800008612046FFF7D8FC7B
:10199000680608D5700606D521686FF0400008611A
:1019A000204600F041F9A8060AD5B00608D52168FE
:1019B0006FF0200008612046BDE8F041FFF7C1BC90
:1019C000BDE8F08110B586B0044614216846FEF7E4
:1019D000C2FC0E492068884216D10D4800210268D9
:1019E00042F004020260006800F0040005904FF429
:1019F000707000900220CDE901010320CDE90310B1
:101A000069460448FFF74AF806B010BD00040140DB
:101A10003038024000080240704770B5044690F824
:101A20003C0000260D4601280FD0012084F83C0020
:101A30006AB1042A1DD0082A2FD00C2A3FD00126D3
:101A4000002084F83C00304670BD022070BD206844
:101A500000F0D4FF2068816941F0080181612068AD
:101A6000816921F004018161206881692A6911433B
:101A700011E0206800F0F2FF2068816941F4006104
:101A800081612068816921F48061816120688169B8
:101A90002A6941EA02218161D2E7206801F014F845
:101AA0002068C16941F00801C1612068C16921F065
:101AB0000401C1612068C1692A69114311E02068ED
:101AC00001F036F82068C16941F40061C161206805
:101AD000C16921F48061C1612068C1692A6941EA54
:101AE0000221C161ACE710B5040003D094F83D00B9
:101AF00010B107E0012010BD002084F83C00204612
:101B000000F01EF8022084F83D00211D206800F03E
:101B1000EDFE012084F8460084F83E0084F83F0082
:101B200084F8400084F8410084F8420084F84300BF
:101B300084F8440084F8450084F83D00002010BD7E
:101B40007047704710B50446022249B104290ED0EF
:101B5000082913D094F84100012816D0012010BDA7
:101B600094F83E000128F9D184F83E200FE094F863
:101B70003F000128F2D184F83F2008E094F84000AB
:101B80000128EBD184F8402001E084F841200122B3
:101B9000206800F013FF16492068164A884201D0D9
:101BA000904203D1436C43F400434364206888426D
:101BB00013D0B0F1804F10D00F4988420DD00F499B
:101BC00088420AD00E49884207D0904205D00D497C
:101BD000884202D00C49884204D1816801F0070193
:101BE000062903D0016841F001010160002010BD09
:101BF00000000140000401400004004000080040D3
:101C0000000C0040004001400018004010B5006882
:101C10000449884205D100F051FDBDE8104000F0B4
:101C2000FFBC10BD001000407047704770470000B7
:101C3000F8B5016804460868CA684B6910F00F0FD0
:101C40004FF0000559D003F0010602F490773743B6
:101C500065D0C10705D0D10503D5616C41F0010104
:101C60006164410705D5D90703D0616C41F00201D9
:101C70006164810705D5D90703D0616C41F0040187
:101C80006164010707D502F02001314303D0616C84
:101C900041F008016164616C00293AD0800604D5E6
:101CA000900602D5204601F015F820684069616C65
:101CB000C0F38010090700D460B3204600F0D5FFC0
:101CC00020684069400621D52068143050E8001F84
:101CD00021F0400140E80012002AF5D1E06BA8B1E4
:101CE00072490165E06BFEF755FD002811D0E06BED
:101CF000016D01B0BDE8F040084783060FD593069B
:101D00000DD52046BDE8F84000F0E4BF2046FFF7BF
:101D10008DFFF8BD2046FFF789FF6564F8BD266B8F
:101D20002023012E7ED1C6067CD5D6067AD508683A
:101D30004868009048694FF0020640064DD5E26BB6
:101D4000106840684FF480770004000C3AD0A18DF1
:101D5000814237D9E085D069B8422DD020680C3057
:101D600050E8001F21F4807140E80012002AF5D1EC
:101D70002068143050E8001F21F0010140E80012F3
:101D8000002AF5D12068143050E8001F21F04001EE
:101D900040E80012002AF5D184F84230256320681B
:101DA0000C3050E8001F21F0100140E80012002A1A
:101DB000F5D1E06BFEF7A5FC6663A08DE18D401ABE
:101DC00081B206E0A18D8142A8D1D069B842A5D1E7
:101DD00066632046FFF729FFF8BDA08DE18D401A0C
:101DE00081B2E08D0028F7D00029F5D020680C30B2
:101DF00050E8002F22F4907240E80027002FF5D120
:101E00002068143050E8002F22F0010240E800273B
:101E1000002FF5D184F84230256320680C3050E85B
:101E2000002F00E006E022F0100240E80023002B23
:101E3000F3D1CDE705062BD5150629D594F8410039
:101E40002128C9D1A068B0F5805F01D12069B0B167
:101E5000206A411C2162216800784860E08C401EA5
:101E60000004000CE084B7D12068C16821F0800133
:101E7000C1602068C16841F04001C160F8BD206ABE
:101E80000088C0F308004860206A801C2062E5E7F3
:101E90004006F3D55006F1D5CA68204622F040022C
:101EA000CA6084F8413000F011F9F8BDC72B000872
:101EB00070B5040004D094F84100002510B106E08C
:101EC000012070BD84F84050204600F023F8242003
:101ED00084F841002068C16821F40051C1602046A7
:101EE00000F05AFF2068016921F4904101612068E7
:101EF000416921F02A0141612068C16841F4005123
:101F0000C1606564202084F8410084F84200656364
:101F1000002070BD2DE9F04186B0064614216846C8
:101F2000FEF719FA30493068884259D12F48002409
:101F3000016841F010010160006800F01000059098
:101F40002A481438016841F00101016000686946BF
:101F500000F0010005904FF4C06000900220CDE930
:101F6000010403200390072004902148FEF796FD0A
:101F7000214D20484FF000672860C5E901744FF4F7
:101F80008068C5E903486C61AC61EC612C6228464D
:101F90006C62FEF7E1FC08B1FEF7B1FBF563AE63DE
:101FA000154D144860357830E5E802074020A5E873
:101FB0001101114845F814496030AC61EC612C62A4
:101FC0006C62FEF7C9FC08B1FEF799FBB56300220D
:101FD00011462520AE63FEF7CDFE2520FEF7BCFEA0
:101FE00006B0BDE8F0810000001001404438024016
:101FF00000000240406402401402002090F8423089
:10200000202B01D00220704721B11AB100230363B5
:1020100000F048BF0120704710B5006807498842AA
:102020000AD10748007800F0BBFABDE81040012251
:1020300003490448FFF7E2BF10BD00000010014053
:1020400000000020CC01002070B5044690F841004B
:10205000202801D0022070BD01B3FAB12162A28410
:10206000E28400206064212384F84130A56B144B86
:10207000EB63A56B134B2B64A56B134BEB64A36B4A
:10208000186520681346A56B021D2846FEF7CEFC96
:1020900030B110206064202084F84100012070BD20
:1020A00021686FF0400008602068143050E8001F7D
:1020B00041F0800140E80012002AF5D1002070BDF7
:1020C0001F2C0008612C0008D52B000870477047B2
:1020D000FEE700000D4808B5016841F48001016089
:1020E0000068002200F48000009011463A20FEF7BC
:1020F00041FE3A20FEF730FE002211464620FEF750
:1021000039FEBDE808404620FEF726BE30380240C2
:1021100030B587B014216846FEF71DF92148002428
:10212000016841F010010160016801F010010591A2
:10213000016841F080010160016801F080010591B2
:10214000016841F001010160016801F001010591A0
:10215000016841F008010160016801F00801059182
:10216000016841F004010160016801F0040105917A
:10217000016841F00201016000680B4D00F00200AF
:1021800005900022FF212846FEF780FDFF200090E9
:102190000120CDE90104694628460394FEF77EFC40
:1021A00007B030BD303802400010024010B58CB08E
:1021B00024216846FEF7CFF80024154809944FF013
:1021C00080410A94C0E90014611EC0E90241046123
:1021D00084610320CDE9000401200421CDE902043B
:1021E0000491CDE905400794694609480894FFF732
:1021F00023FA08B1FEF783FA099409A904480A945E
:10220000FFF7CAF8002801D0FEF779FA0CB010BD2C
:102210001C00002010B58CB024216846FEF79BF806
:1022200000241648099414490A94C0E900144FF692
:10223000FF71C0E90241046184610320CDE900041B
:102240000120CDE902040494CDE905400420CDE944
:10225000074069460948FFF7EFF908B1FEF74FFA62
:10226000099409A905480A94FFF796F8002801D0B7
:10227000FEF745FA0CB010BD0004004064000020D9
:1022800010B58CB024216846FEF765F80024154887
:10229000099413490A94C0E900144FF6FF71C0E98C
:1022A0000241046184610120CDE90004CDE902040A
:1022B0000494CDE90540079469460A480894FFF75D
:1022C000BBF908B1FEF71BFA099409A905480A945D
:1022D000FFF762F8002801D0FEF711FA0CB010BD2C
:1022E00000080040AC00002010B58CB024216846E6
:1022F000FEF731F800241548099413490A94C0E9FF
:102300000014611EC0E90241046184610120CDE92D
:102310000004CDE902040494CDE905400794694620
:102320000A480894FFF788F908B1FEF7E8F909941C
:1023300009A906480A94FFF72FF8002801D0FEF7F4
:10234000DEF90CB010BD0000000C0040F4000020CD
:102350001CB500240E4800940C49019401605321DF
:10236000C0E9011444F61F618461C160FFF75CF8A5
:1023700008B1FEF7C4F90094694605480194FFF7D7
:102380000BF8002801D0FEF7BAF91CBD0010004080
:102390003C01002010B596B000240F9410941194C5
:1023A000129413941C2168461494FDF7D4FF202145
:1023B00007A8FDF7D0FF34483249C0E9001441F6C0
:1023C0001F41C0E90241046144618461FFF72CF8B8
:1023D00008B1FEF794F94FF480500F900FA92A48E6
:1023E000FFF7BCF808B1FEF78AF92748FFF77BFB37
:1023F00008B1FEF784F9139413A923481494FEF747
:10240000CBFF08B1FEF77BF96020CDE90004029410
:10241000039404940594002269461B480694FFF730
:10242000FCFA08B1FEF76BF9042269461648FFF77B
:10243000F4FA08B1FEF763F9082269461248FFF77B
:10244000ECFA08B1FEF75BF90C2269460E48FFF77B
:10245000E4FA08B1FEF753F90794089409944FF48D
:1024600000500A94CDE90B4007A907480E94FEF7E7
:1024700069FF08B1FEF743F90348FFF7A3FA16B066
:1024800010BD000000040140840100200C4810B57C
:102490000A4901604FF4E1314160002181600C2262
:1024A000C160C0E904128161C161FFF701FD00282C
:1024B00003D0BDE81040FEF722B910BD0010014066
:1024C000CC010020FEE7FEE780ED050A30EE600A51
:1024D000C0ED060A80ED070AD0ED000A20EE801A52
:1024E000D0ED090A70EE801AC0ED091AD0ED040A89
:1024F000F4EEE01AF1EE10FA01DDC0ED090AD0EDBC
:10250000091AF1EE600AF4EEE01AF1EE10FA01D2C7
:10251000C0ED090AD0ED010AD0ED091A90ED022AAA
:1025200060EEA11AD0ED080A70EE600A31EE211AB1
:1025300060EE820A31EE201A80ED0A1AD0ED030A0D
:10254000B4EEE01AF1EE10FA01DDC0ED0A0A90EDEA
:102550000A1AF1EE600AB4EEE01AF1EE10FA01D2B6
:10256000C0ED0A0A80ED080A90ED0A0A704780EC77
:10257000050A00F001B800009FED070A80ED050A8A
:1025800080ED060A80ED070A80ED080A80ED090A51
:1025900080ED0A0A7047000000000000704700004C
:1025A00070B51D4C1D4922782AB10025012A08D09A
:1025B000022A08D10EE0552802D1087001202070AF
:1025C00070BDAA2801D0257070BD4870022020700F
:1025D000607070BD62788854521CD0B2607014284C
:1025E000F7D3887CCA7C0D2813D10A2A11D1D1F8DF
:1025F0000E0001EE900AD1F80A0001EE100AD1F89F
:10260000060000EE900AD1F8020000EE100A00F079
:10261000DDF82570657070BD01000020B803002052
:10262000244810B590F84100202842D1224C552072
:1026300004F8060BAA2004F8050C0D2020770A20C8
:1026400060770020FDF7ECFE10EE100A44F8040C51
:102650000120FDF7E5FE10EE100A20600220FDF7D4
:10266000DFFE10EE100A60600320FDF7D9FE10EEC9
:10267000100AA0600020FDF7E9FE10EE100AE060ED
:102680000120FDF7E3FE10EE100A20610220FDF7A5
:10269000DDFE10EE100A60610320FDF7D7FE10EE9C
:1026A000100A2422A061BDE8104003490148FFF749
:1026B000CBBC10BDCC0100209403002070B5FDF709
:1026C0000DFF002434B1012C06D0022C07D0032CBE
:1026D00020D107E0114D07E0104D2C3504E00F4DDF
:1026E000583501E00D4D8435E0B2FDF7AFFE0B48E3
:1026F000F0EE400A103800EB840090ED000A284606
:10270000FFF7E2FEBDEEC00AE0B210EE101A09B209
:10271000FDF74AFF641C042CD4DB70BDE4020020EA
:1027200010B52DED068BFDF727FFFDF797FE9FED0A
:10273000229A9FED228ADFED229A9FED22AAF1EEE6
:10274000048AB0EE692AF0EE4A1AB0EE481AF0EEAA
:10275000680AB0EE490A1C48FFF709FF1A48B0EEB4
:10276000692AF0EE4A1AB0EE481AF0EE680AB0EEA6
:10277000490A2C30FFF7FBFE1348B0EE692AF0EE51
:102780004A1AB0EE481AF0EE680AB0EE490A58301C
:10279000FFF7EDFEB0EE692AF0EE4A1AB0EE481AE5
:1027A000F0EE680AB0EE490ABDEC068B0648BDE8BB
:1027B00010408430FFF7DBBE0000484400000000FA
:1027C0000000FA4400F8E045E4020020014880ECF3
:1027D000040A7047D40200207047000070B5154D00
:1027E0000A46B8B1012818D0022819D003281FD1F1
:1027F00040218024012A03D0521C4FF0000212D045
:102800002846FEF743FA002221462846BDE87040DC
:10281000FEF73CBA01210224ECE704210824E9E791
:1028200010212024E6E72846FEF730FA0122EBE7E4
:1028300070BD000000100240FEF734BA30B593B00E
:1028400030216846FDF787FD14210CA8FDF783FDB4
:102850001D480025016841F080510160006800F0CA
:10286000805011901948016841F48041016000686E
:10287000022400F480401190012000900004019097
:102880008001CDE9064008AA0420A82182E81300AF
:102890000B906846FEF78AFB08B172B6FEE70CA9FA
:1028A0000F2081E831004FF4A0500F904FF480507A
:1028B000109005210CA8FEF78FFA002801D072B6FF
:1028C000FEE713B030BD0000403802400070004009
:1028D0000248016841F470010160704788ED00E032
:1028E0000148FEF7D7BF00003C010020F0B50268A8
:1028F000274B284D284E294F294C4FF0804C9842A9
:1029000009D0604507D0A84205D0B04203D0B842F4
:1029100001D0A04204D122F0700E4A6842EA0E02B1
:1029200098421BD0604519D0A84217D0B04215D0AC
:10293000B84213D0A04211D01A4DA8420ED01A4D61
:10294000A8420BD0194DA84208D0194DA84205D075
:10295000184DA84202D0184DA84203D122F4407568
:10296000CA682A434D6922F080022A438D68C562F5
:102970000D688562984201D0A04201D109690163C6
:10298000016841F004010160012141610260F0BD74
:10299000000001400004004000080040000C00401E
:1029A0000004014000400140004401400048014053
:1029B00000180040001C00400020004010B501F04D
:1029C0001F030121046A99408C430462016A9A4002
:1029D0001143016210BD10B5846842EA032224F459
:1029E0007F440A432243826010BD826822F0700255
:1029F0000A4342F00701816070470000F0B5036AA6
:102A0000026A22F00102026242688469124E24F0D6
:102A100073050C682C4323F002058B682B430D4D86
:102A2000A84201D0B04205D123F00807CB683B4350
:102A300023F00403A84201D0B04205D14D6922F42D
:102A4000407215438A692A43426084614968416340
:102A50000362F0BD0000014000040140F0B5026ACD
:102A6000036A23F010030362436884690D6824F449
:102A7000E64444EA05248D6822F0200242EA051269
:102A80000F4D104EA84201D0B04206D1CF6822F0BF
:102A9000800242EA071222F04002A84201D0B0426E
:102AA00007D14D6923F4406343EA85038D6943EA06
:102AB000850343608461496881630262F0BD000060
:102AC0000000014000040140F0B5026A036A23F4EB
:102AD000807303624368C46922F4007224F07305B2
:102AE0000C68124E2C438D6842EA05220E4DA84216
:102AF00001D0B04206D1CF6822F4006242EA072238
:102B000022F48062A84201D0B04207D14D6923F47B
:102B1000405343EA05138D6943EA05134360C461DA
:102B20004968C1630262F0BD000001400004014039
:102B300030B5046A026A22F4805202624268C369B4
:102B40000D6823F4E64343EA05238D6824F400541A
:102B500044EA0534084DA84202D0084DA84204D1E9
:102B60004D6922F4804242EA85124260C36149689D
:102B70000164046230BD0000000001400004014017
:102B800010B5036A046A24F001040462846924F025
:102B9000F00444EA021423F00A020A438461026248
:102BA00010BD10B5036A046A24F01004046284693D
:102BB00023F0A00324F4704444EA023243EA0111F2
:102BC0008261016210BD10B5806B0021C185FFF7E5
:102BD0002DF810BD70B5846B2068406994F84110E1
:102BE000C0F3C0100025212904D118B1E584204686
:102BF00000F062F82068406994F84210C0F3801039
:102C0000222904D118B1E585204600F02EF8606C29
:102C100040F0100060642046FFF708F870BD10B562
:102C20000146806B09680968C90516D40021C18472
:102C30000168143151E8002F22F0800241E800239E
:102C4000002BF5D101680C3151E8002F42F0400211
:102C500041E80023002BF5D110BDFFF737FA10BD76
:102C600010B5806BFFF733FA10BD01680C3151E8E5
:102C7000002F22F4907241E80023002BF5D1016867
:102C8000143151E8002F22F0010241E80023002B0B
:102C9000F5D1016B012909D101680C3151E8002FF0
:102CA00022F0100241E80023002BF5D1202180F80A
:102CB000421000210163704701680C3151E8002F78
:102CC00022F0C00241E80023002BF5D1202180F83A
:102CD0004110704708B590F84210222901D0022017
:102CE00008BD82684FF480539A4201D1016921B135
:102CF000816A9A421BD04AB10AE00268816A52682E
:102D0000C2F308020A80816A891C08E0026972B174
:102D10000268526802F07F020A70816A491C81626F
:102D2000C18D491E0904090CC18503D01BE002684E
:102D30005268F1E70168CA6822F02002CA6001689F
:102D4000CA6822F48072CA6001684A6922F00102EE
:102D50004A61202180F8421000214163026B012A60
:102D600003D0FFF759F9002008BD016301680C3159
:102D700051E8002F22F0100241E80023002BF5D18A
:102D800001680A68D20602D50A6849680091818DF7
:102D9000FEF74BFFE7E7000070B5044600680169E5
:102DA000E26821F44051114301612169A068E269A0
:102DB00008436169114308432168CA6849F20C63FA
:102DC0009A430243CA6020684169A26921F44071B4
:102DD0001143416131492068884202D0304988421C
:102DE00002D1FEF7A3F801E0FEF790F8E2690023B4
:102DF000192164253226B2F5004F626828D0A0FB65
:102E00000101930F9200FDF72FFA0146B0FBF5F098
:102E10006FF01802504301EB800006EB0010B0FB8E
:102E2000F5F000F0F002B1FBF5F002EB0012B1FB9F
:102E3000F5F06FF01803584301EB800006EB00102B
:102E4000B0FBF5F000F00F0021681044886070BD01
:102E5000A0FB010192185B41FDF706FA0146B0FBA9
:102E6000F5F00201B1FBF5F06FF01803584301EBE8
:102E7000800006EBC000B0FBF5F000F0F80002EBBC
:102E80004002B1FBF5F0584301EB800006EBC000B7
:102E9000B0FBF5F000F00700D6E70000001001409D
:102EA0000014014081628285C28500214164222193
:102EB00080F84210016921B10168CA6842F4807249
:102EC000CA6001684A6942F001024A610068C1684B
:102ED00041F02001C1600020704700000148FEF76A
:102EE000A7BE0000CC010020FEE70907090E00285C
:102EF00004DB00F1E02080F80014704700F00F00C0
:102F000000F1E02080F8141D70470000FFF708FC76
:102F10000F48FEF7E3FA01220E490F48FFF76EF85B
:102F2000FDF7C8FEFFF78AFCFFF7F2F8FFF7D2F8CB
:102F3000FFF73CF9FFF76EF9FFF7A2F9FFF7D4F9B5
:102F4000FFF706FAFFF726FAFFF7A0FAFEE7000000
:102F50003C01002000000020CC0100204FF0407018
:102F6000E1EE100A70470006101600061016000069
:102F70000000000000000102030406070809000029
:102F80000000010203040000A82F00080000002038
:102F90001C000000C4010008C42F00081C00002011
:102FA000340A0000E00100080000000000000000FA
:102FB0000000000001000000100000000000000000
:042FC0000024F400F5
:040000050800018965
:00000001FF
